:020000040800F2
:1000000000A00020B9350008FD060008FF06000822
:1000100001070008030700080507000800000000AA
:1000200000000000000000000000000007070008BA
:1000300009070008000000000B0700080D07000872
:100040000936000809360008093600080936000894
:100050000936000809360008093600080936000884
:100060000936000809360008093600080936000874
:100070000936000809360008093600081507000887
:10008000093600080936000809360008000000009B
:100090000000000000000000000000000936000819
:1000A0000936000809360008093600080936000834
:1000B00009360008000000000000000009360008B2
:1000C0000936000809360008093600080936000814
:1000D0000936000809360008093600080936000804
:1000E0000936000809360008000000000000000082
:1000F0000000000000000000000000000000000000
:1001000000000000000000000000000000000000EF
:100110000000000000000000093600080000000098
:1001200009360008093600080936000809360008B3
:100130000936000800000000000000000000000078
:100140000936000809360008093600080936000893
:100150000936000809360008093600080936000883
:100160000936000809360008000000000000000001
:100170000000000009360008000000000000000038
:10018000093600080936000809360008000000009A
:10019000034613F8012B002AFBD1181A01387047C7
:1001A00053B94AB9002908BF00281CBF4FF0FF31DE
:1001B0004FF0FF3000F00CB8ADF1080C6DE904CE43
:1001C00003F050FADDF804E0DDE9022304B07047E3
:1001D000704700BF10B5054C237833B9044B13B1F9
:1001E0000448AFF300800123237010BD10000020ED
:1001F000000000002039000808B5034B1BB103497B
:100200000348AFF3008008BD000000001400002088
:100210002039000800B58BB0002307930893099399
:100220000193029303930493059306931E481F4A78
:10023000026043608360C36003610422426103760D
:1002400043760122C26180F820308362C36280F865
:100250003030436380F8383000F0E6FCD0B900233A
:10026000079307A9104801F001F8B0B9104B0193AA
:1002700006230293002303937F2204920422059213
:1002800006930DEB0201084800F0C8FD40B90BB021
:100290005DF804FB00F03AF9E1E700F037F9E5E733
:1002A00000F034F9F3E700BF2C00002000000450F8
:1002B0000004002A00B589B000230393049305933A
:1002C000069307930268134B9A4202D009B05DF877
:1002D00004FB03F17043A3F5F833DA6C42F40052E7
:1002E000DA64DA6C02F400520192019ADA6C42F09C
:1002F0000102DA64DB6C03F001030293029B20230A
:1003000003930B23049303A94FF0904001F09CF951
:10031000DCE700BF0000045000B583B00A4B9A6CC4
:1003200042F001029A649B6C03F001030193019B6C
:10033000002211460F2001F079F80F2001F086F815
:1003400003B05DF804FB00BF0010024070B588B038
:10035000002403940494059406940794234BDA6CC8
:1003600042F00402DA64DA6C02F004020092009AAD
:10037000DA6C42F00102DA64DA6C02F001020192F6
:10038000019ADA6C42F00202DA64DB6C03F00203D9
:100390000293029B224618214FF0904001F032FA5E
:1003A000134D22460B21284601F02CFA1823039303
:1003B000012604960594069403A94FF0904001F09D
:1003C00043F90B23039304960594069403A9284646
:1003D00001F03AF9602303934FF4881304930594D2
:1003E00003A9284601F030F908B070BD00100240A2
:1003F0000004004808B51248124B0360124B4360DA
:10040000002383600122C260036143618361C36191
:10041000036201F0FCF950B90021094801F055FAD6
:1004200040B90021064801F07EFA30B908BD00F05D
:100430006DF8F1E700F06AF8F3E700F067F8F5E728
:1004400090000020005C0040EC9C90102DE9F041F1
:1004500096B00446002111911291139114911591B7
:10046000342204A803F0D1F82268254B9A4202D026
:1004700016B0BDE8F0814FF48073049304A801F036
:10048000CDFF002838D11F4CE36C43F00103E36437
:10049000E36C03F001030193019BE36C43F002035F
:1004A000E364E36C03F002030293029B8023119345
:1004B0004FF01208CDF848800027139703261496B2
:1004C0000425159511A94FF0904001F0BDF81023B7
:1004D0001193CDF8488013971496159511A90A48E1
:1004E00001F0B2F8A36D43F40003A365A36D03F418
:1004F00000030393039BBBE700F008F8C3E700BFCA
:10050000005C0040001002400004004872B6FEE7A4
:1005100000B597B04422002105A803F076F8002327
:10052000009301930293039304934FF4007001F03E
:100530002FFA10BB022305934FF480720892102209
:10054000099210931193012212920A22139214938A
:10055000159305A801F006FB88B90F230093032328
:10056000019300230293039304930421684601F04E
:1005700067FE30B917B05DF804FBFFF7C7FFFFF760
:10058000C5FFFFF7C3FF000030B59BB000F0E8FAED
:10059000FFF7BEFFFFF7DAFEFFF7BEFE00F04CFAF2
:1005A00000F03AF8FFF736FEFFF724FF00F050F9AD
:1005B00000F0ECF90021154802F0F4FB00254FF49F
:1005C0007A741BE04FF0FF352C44104B1B685C63C2
:1005D0000F4B93E803000190ADF80810090C8DF85B
:1005E0000A1001A8FFF7D4FD4FF0FF3382B201A932
:1005F000084802F00CFF012000F0D4FAB4F5FA6FBD
:10060000E0D0B4F57A7FDFD10125DDE7DC01002001
:10061000383900082802002008B51048104B036044
:100620004FF482734360002383604FF44072C260D2
:10063000036143614FF400728261C36103624362EC
:1006400083620722C26203630823436302F000F857
:1006500000B908BDFFF75AFFFBE700BFE400002028
:100660000030014000B589B0002303930493059343
:10067000069307930268144B9A4202D009B05DF8C2
:1006800004FB03F560431A6E42F480521A661A6E38
:1006900002F480520192019ADA6C42F00102DA64AB
:1006A000DB6C03F001030293029B41F242030393CC
:1006B00002230493032306930523079303A94FF012
:1006C000904000F0C1FFD9E70030014082B00A4BF2
:1006D0001A6E42F001021A661A6E02F001020092CE
:1006E000009A9A6D42F080529A659B6D03F0805398
:1006F0000193019B02B0704700100240FEE7FEE745
:10070000FEE7FEE7FEE770477047704708B500F068
:1007100037FA08BD08B5024800F034FF08BD00BF35
:1007200048010020034AD2F8883043F47003C2F82D
:100730008830704700ED00E010B582B003681E4AB3
:10074000934205D00446B3F1804F0CD002B010BDE7
:100750001A4B1A6E42F400621A661B6E03F40063B1
:100760000093009BF2E703F504339A6D42F0010217
:100770009A659B6D03F001030193019B1048114B97
:1007800003600423436000238360C360802202610E
:100790004FF4007242614FF400628261C3614FF412
:1007A0004053036200F06AFE18B9054B63629C6215
:1007B000CCE7FFF7ABFEF8E7002C01400010024049
:1007C000480100205800024000B589B0002303937F
:1007D000049305930693079303681B4A934205D03D
:1007E000B3F1804F19D009B05DF804FB174BDA6CF8
:1007F00042F00102DA64DB6C03F001030193019B18
:100800004FF470630393022304930123079303A916
:100810004FF0904000F018FFE5E703F50433DA6C81
:1008200042F00102DA64DB6C03F001030293029BE5
:100830000123039302220492079303A94FF09040EF
:1008400000F002FFCFE700BF002C01400010024083
:1008500010B59AB000241694179418941994139410
:10086000149415940C940D940E940F941094119468
:1008700012942C22214601A802F0C7FE4148424BA7
:1008800003604F234360846044F61F63C3600461C8
:100890004461846102F0B2F8002858D14FF48053CB
:1008A000169316A9374802F0EDF9002852D13548C1
:1008B00002F0D4F8002850D1002313931493159319
:1008C00013A9304802F00AFB002849D160230C9399
:1008D0004FF47A730D9300220E920F9210921192A0
:1008E00012920CA9274802F023F900283BD10023DB
:1008F0000D9304220CA9234802F01AF9002835D1DF
:1009000008220CA91F4802F013F9002831D10C224B
:100910000CA91C4802F00CF970BB00230193029350
:100920000393049305934FF40052069207930893A0
:100930004FF0007209920A930B9301A9114802F03B
:1009400005FBE0B90F48FFF73FFF1AB010BDFFF7F6
:10095000DDFDA3E7FFF7DAFDA9E7FFF7D7FDABE77A
:10096000FFF7D4FDB2E7FFF7D1FDC0E7FFF7CEFDFB
:10097000C6E7FFF7CBFDCAE7FFF7C8FDCDE7FFF7F6
:10098000C5FDDFE7DC010020002C014000B58FB081
:1009900000230A930B930C930D93079308930993E9
:1009A00000930193029303930493059306932148C4
:1009B0004FF080420260436083604FF0FF32C260BC
:1009C0000361836102F01AF820BB4FF480530A934D
:1009D0000AA9184802F056F9F8B9164802F03EF88C
:1009E000F0B900230793099307A9124802F076FA99
:1009F000C8B96023009300220192029204926946D2
:100A00000C4802F095F888B90A48FFF7DDFE0FB0F0
:100A10005DF804FBFFF77AFDD7E7FFF777FDDCE72A
:100A2000FFF774FDDDE7FFF771FDE2E7FFF76EFD0D
:100A3000EAE700BF9001002008B50B480B4B0360AC
:100A40004FF4E133436000238360C36003610C22F1
:100A500042618361C3610362436202F07CFD00B9BD
:100A600008BDFFF753FDFBE72802002000440040CB
:100A700070B594B0044600210F911091119112911C
:100A80001391342202A802F0C0FD22681E4B9A4244
:100A900001D014B070BD0223029302A801F0BEFC85
:100AA00000282ED1194B9A6D42F400329A659A6D46
:100AB00002F400320092009ADA6C42F00102DA6429
:100AC000DB6C03F001030193019B04230F930226C7
:100AD00010960025119503241294072313930FA950
:100AE0004FF0904000F0B0FD4FF400430F9310968C
:100AF0001195129413940FA94FF0904000F0A4FDAB
:100B0000C7E7FFF703FDCDE70044004000100240B7
:100B1000104B1B780BB90120704710B504464FF4F9
:100B20007A70B0FBF3F30C4A1068B0FBF3F000F0FE
:100B300091FC68B90F2C01D901200AE0002221465E
:100B40004FF0FF3000F072FC044B1C60002000E00E
:100B5000012010BD0400002000000020080000203B
:100B600010B5032000F050FC0020FFF7D1FF10B1BA
:100B70000124204610BD0446FFF7A8FDF9E7000058
:100B8000034B1B78034A11680B441360704700BF86
:100B900004000020AC020020014B1868704700BF21
:100BA000AC02002038B50446FFF7F6FF0546B4F165
:100BB000FF3F02D0044B1B781C44FFF7EDFF401BA6
:100BC000A042FAD338BD00BF0400002010B430307A
:100BD0000B0A9B0003F00C03C45801F01F014FF0F7
:100BE0001F0C0CFA01FC24EA0C0CC2F384628A404C
:100BF0004CEA0202C2505DF8044B704710B4143046
:100C00004B0E9B0003F00403C458C1F304514FF092
:100C1000070C0CFA01FC24EA0C0C8A404CEA020294
:100C2000C2505DF8044B704730B583B00023019388
:100C3000002800F0E4800446436D13B323689A68EB
:100C400012F0005F05D09A6822F0204222F03F02A5
:100C50009A602268936813F0805F1FD1936823F035
:100C6000104323F03F0343F080539360654B1B68B0
:100C70009B09654AA2FB03239B0901335B00019397
:100C800009E0FFF717FB0023A36584F85030D5E790
:100C9000019B013B0193019B002BF9D122689368D2
:100CA00013F0805F40F08280636D43F01003636552
:100CB000A36D43F00103A3650120936813F00403BF
:100CC00000D00123616D11F0100F40F09180002BD6
:100CD00040F08E80636D23F4817343F002036365FB
:100CE000936813F0010F14D1484B9A6812F0010277
:100CF00000D00122464B9B6813F0010300D0012372
:100D0000134306D1636843498A6822F47C12134373
:100D10008B60627E636B43EA4233E2681343A268EE
:100D2000134394F8202043EA0243012A40D0A26AE8
:100D300022B102F47072E16A0A4313432168CD685C
:100D4000354A2A401A43CA6021688B6813F00403AD
:100D500000D001238A6812F0080200D00122B3B942
:100D6000AAB9237E94F83020520042EA8332CB683D
:100D700023F4804323F002031343CB6094F838300C
:100D8000012B1AD02268136923F001031361236930
:100D9000012B24D02268136B23F00F031363636DC0
:100DA00023F0030343F00103636526E0002084E79A
:100DB000626A013A43EA4243B9E721680B6923F4C6
:100DC000FF6323F00403E26B256C2A43656C2A431E
:100DD000A56C2A43134343F001030B61D7E7216855
:100DE0000B6B23F00F03E269013A13430B63D6E761
:100DF000636D43F010036365012003B030BD012033
:100E0000FBE700BF00000020632D3E0500000450FA
:100E1000000104500003045007C0F0FFF0B583B098
:100E20000023019390F85030012B00F01482044607
:100E30000D46012380F8503003689B6813F0040FBF
:100E400009D0436D43F0200343650120002384F85B
:100E5000503003B0F0BD4B68052B08D8023B032B84
:100E600079D8DFE803F0026E71740C234B602A68B6
:100E700069682068FFF7AAFE2068836813F00403FE
:100E800000D00123826812F0080200D0012223BBA7
:100E90001ABBAA68B2F1004F60D02968FFF7AEFE16
:100EA0002268536923F00043536169692268D3685B
:100EB000C3F3C1035B0099402869042858D02E6809
:100EC000603252F82070AA4B3B4006F0F84631439E
:100ED0000B4343F0004342F820302268936813F03C
:100EE000010F17D12B68E868D2F8B010C3F31206CF
:100EF00021EA060100F0180C9E4820FA0CF003408D
:100F0000C3F312030B43C2F8B030EA689A4B9A421B
:100F100000F095802B68994A134200F09881984A16
:100F2000926802F0E07097498B4200F04281964946
:100F30008B4200F0658195498B4200F0758100205D
:100F400084E712234B6092E718234B608FE74FF43E
:100F500080734B608BE706234B6088E7002229688B
:100F6000FFF74CFE2268536943F0004353619CE74E
:100F7000136E116EC1F384612B68C3F3120078BB4A
:100F8000C3F38463994233D021684B6E4A6EC2F337
:100F900084622B68C3F3120078BBC3F384639A4264
:100FA00033D021688B6E8A6EC2F384622B68C3F3E0
:100FB000120078BBC3F384639A4233D02168CB6EAE
:100FC000CA6EC2F384622B68C3F3120078BBC3F30A
:100FD00084639A4281D1CB6E23F00043CB667CE7D9
:100FE00093FAA3F313B1B3FA83F3CBE72023C9E752
:100FF000136E23F000431366C6E793FAA3F313B10D
:10100000B3FA83F3CBE72023C9E74B6E23F0004309
:101010004B66C6E793FAA3F313B1B3FA83F3CBE7B6
:101020002023C9E78B6E23F000438B66C6E793FA53
:10103000A3F313B1B3FA83F3CBE72023C9E7206806
:101040002B68C3F3120626BB9A0E013202F01F0270
:10105000092A8CBF00220122002A52D046BB990ED9
:101060000131890601F0F84176BB9F0E013707F088
:101070001F070122BA401143AEBB9B0E013303F0A0
:101080001F0303EB43031B051943AA68FFF7B6FDD3
:1010900040E793FAA3F24AB1B2FA82F2013202F0C7
:1010A0001F02092A8CBF00220122D5E72022F5E782
:1010B00093FAA3F131B1B1FA81F10131890601F05E
:1010C000F841D1E72021F8E793FAA3F24AB1B2FA46
:1010D00082F2013202F01F024FF0010C0CFA02F210
:1010E000C9E72022F5E793FAA3F343B1B3FA83F3F8
:1010F000013303F01F0303EB43031B05C4E7202365
:10110000F6E7CEB9990E0131890601F0F841FEB932
:101110009F0E013707F01F070122BA401143BEBBE3
:101120009B0E013303F01F0303EB43031E3B1B0520
:1011300043F000731943A8E793FAA3F131B1B1FA70
:1011400081F10131890601F0F841E0E72021F8E75B
:1011500093FAA3F24AB1B2FA82F2013202F01F020C
:101160004FF0010C0CFA02F2D8E72022F5E700BF9D
:1011700000F0FF03FFFF070000007F400000088031
:1011800000030450000052C7000084CB010000801F
:1011900093FAA3F35BB1B3FA83F3013303F01F03B4
:1011A00003EB43031E3B1B0543F00073C2E7202300
:1011B000F3E712F4000F7FF4BAAE2268274B9A428D
:1011C00001D0002042E640F4000325498A6822F05D
:1011D000E07213438B60234B1B689B09224AA2FBDE
:1011E00003239B09013303EB43039B00019302E0BC
:1011F000019B013B0193019B002BF9D1002025E6C7
:1012000012F0807F7FF497AE2268144B9A4201D08F
:1012100000201BE640F0807311498A6822F0E072DA
:1012200013438B60002011E612F4800F11D1226865
:101230000A4B9A4201D0002008E640F48003084996
:101240008A6822F0E07213438B600020FEE50020E4
:10125000FCE50020FAE50220FBE500BF0000045099
:101260000003045000000020632D3E0590F850203C
:10127000012A7ED010B49BB00346012280F8502092
:1012800000221692179200683B4A904238D0002202
:101290000192019A002A37D0926812F0040200D01D
:1012A0000122806810F0040F53D1002A51D10A683E
:1012B000002A32D0314CA26822F46042486893F888
:1012C00030C040EA4C300243A2602B4A906810F0D4
:1012D000010000D001202A4A926812F0010200D0D9
:1012E0000122024341D1254CA26822F4716222F00E
:1012F0000F020868896801430A43A26000202DE0BC
:1013000002F580720192C4E75A6D42F020025A65DC
:10131000002283F85020012023E018498A6822F433
:1013200060428A60144A916811F0010100D00121E5
:10133000134A926812F0010200D001220A4316D12A
:101340000E498A6822F4716222F00F028A6000203E
:1013500004E05A6D42F020025A650120002283F811
:1013600050201BB05DF8044B70470020F6E70020CA
:10137000F4E70220704700BF00000450000304504F
:1013800000010450002807DB00F01F024009012380
:101390009340024A42F82030704700BF00E100E06D
:1013A000002808DB0901C9B200F1604000F5614086
:1013B00080F80013704700F00F000901C9B2014B1B
:1013C0001954704714ED00E000B500F00700C0F1BB
:1013D000070CBCF1040F28BF4FF0040C031D062BB3
:1013E0000FD9C31E4FF0FF3E0EFA0CF021EA0001A8
:1013F00099400EFA03FE22EA0E0241EA02005DF86D
:1014000004FB0023EEE70000074AD36823F4E063FF
:101410001B041B0C000200F4E060034343F0BF63B5
:1014200043F40033D360704700ED00E010B504468C
:10143000054BD868C0F30220FFF7C6FF01462046DF
:10144000FFF7AEFF10BD00BF00ED00E008B5FFF7ED
:1014500099FF08BD0138B0F1807F0BD24FF0E02337
:101460005861054AF02182F8231000209861072274
:101470001A6170470120704700ED00E0002873D02A
:1014800010B403460068394A90424AD8384A0244A8
:101490003849A1FB0212120992005A64364A1A64B2
:1014A000022283F82520016821F4FF4121F0700118
:1014B0009A68DC6822431C6922435C6922439C6968
:1014C0002243DC6922431C6A22430A4302609A6871
:1014D000B2F5804F1BD0196C274A91422CD0264A76
:1014E000D2F8A814586C00F01C0C0F2000FA0CF075
:1014F00021EA0001C2F8A814D2F8A81458685C6C5C
:1015000004F01C0C00FA0CF00143C2F8A8140020EF
:10151000D863012283F8252083F824005DF8044B6A
:101520007047164A02441349A1FB021212099200A5
:101530005A64134A1A64B3E7D2F8A810586C00F042
:101540001C0C0F2000FA0CF021EA0001C2F8A810D0
:10155000D2F8A81058685C6C04F01C0C00FA0CF06F
:101560000143C2F8A810D2E70120704707040240E7
:10157000F8FFFDBFCDCCCCCC00000240F8FBFDBF96
:101580000004024038B5036C196804682568436C90
:1015900003F01C0304229A400A4215D015F0040FF0
:1015A00012D0236813F0200F03D1236823F0040323
:1015B0002360436C03F01C02016C042393404B60D6
:1015C000036B03B1984738BD02229A400A421CD0EF
:1015D00015F0020F19D0236813F0200F06D12368ED
:1015E00023F00A032360012380F82530436C03F0C5
:1015F0001C02016C022393404B60002380F82430CE
:10160000C36A002BDFD09847DDE7082202FA03F314
:101610000B42D8D015F0080FD5D0236823F00E0365
:101620002360436C03F01C03016C012202FA03F3F4
:101630004B60C26380F82520002380F82430436B80
:10164000002BC0D09847BEE7F0B583B0002362E01E
:1016500085685E000324B44025EA0405CC68B440E4
:101660002C438460456825EA0C054C68C4F30014DB
:101670009C402C4344605FE0DD08083550F825406D
:1016800003F0070C4FEA8C0C4FF00F0E0EFA0CFE15
:1016900024EA0E0E0C6904FA0CF444EA0E0440F835
:1016A000254060E0032400E0002404FA0EF42C43FB
:1016B0000CF1020C4F4D45F82C404F4CA568D4431B
:1016C00025EA02064F6817F4801F01D042EA05069A
:1016D000494DAE60ED6804EA05064F6817F4001F37
:1016E00001D042EA0506444DEE606D6804EA050645
:1016F0004F6817F4003F01D042EA05063E4D6E6088
:101700002D682C404E6816F4803F01D042EA050453
:10171000394A146001330A6832FA03F468D04FF092
:10172000010C0CFA03FC1CEA0202F3D04C6804F032
:101730000304013C012C8BD94C6804F00304032CF6
:101740000CD0C4685D004FF0030C0CFA05FC24EAD1
:101750000C0C8C68AC4044EA0C04C4604C6804F087
:101760000304022C88D004684FEA430E4FF0030CA8
:101770000CFA0EFC24EA0C0C4C6804F0030404FA86
:101780000EF444EA0C0404604C6814F4403FC1D0E9
:101790001A4C256E45F001052566246E04F00104FF
:1017A0000194019C4FEA930C0CF10205114C54F882
:1017B000255003F0030E4FEA8E0E0F2404FA0EF4A8
:1017C00025EA0405B0F1904F3FF46EAF0C4CA042F7
:1017D0000AD004F58064A04208D004F58064A042D9
:1017E0003FF460AF072460E701245EE702245CE772
:1017F00003B0F0BD000001400004014000100240B1
:10180000000400480AB18161704781627047002876
:1018100059D010B5044690F84130002B43D0242312
:1018200084F841302268136823F001031360636871
:10183000226823F0706313612268936823F40043E5
:101840009360E368012B33D0A368226843F4044318
:101850009360E368022B31D02268536843F0007331
:1018600043F4004353602268D36823F40043D360F9
:10187000236962691343A169226843EA0123D360A3
:10188000E369216A22680B4313602268136843F0FE
:101890000103136000206064202384F8413020633A
:1018A00084F8420010BD80F84030FEF7CFFDB6E767
:1018B000A368226843F400439360CAE723684FF4A7
:1018C00000625A60C8E701207047034690F8412043
:1018D000D2B2202A23D190F84020012A21D001221F
:1018E00080F84020242280F841200068026822F01D
:1018F000010202601868026822F4805202601868CF
:1019000002681143016019680A6842F001020A6026
:10191000202283F84120002083F8400070470220F5
:10192000704702207047034690F84120D2B2202A27
:1019300021D190F84020012A1FD0012280F84020B8
:10194000242280F841200068026822F0010202602F
:101950001868026822F4706242EA01220260196883
:101960000A6842F001020A60202283F84120002028
:1019700083F8400070470220704702207047000043
:10198000024B186800F4C060704700BF0070004050
:10199000B0F5007F0FD01F4B1B6803F4C063B3F595
:1019A000806F34D01B4A136823F4C06343F4806310
:1019B000136000207047174B1B6803F4C063B3F536
:1019C000007F20D0134A136823F4C06343F40073EC
:1019D0001360114B1B68322202FB03F30F4AA2FB78
:1019E00003239B0C013300E0013B0A4A526912F4C5
:1019F000806F01D0002BF7D1064B5B6913F4806F29
:101A000003D100207047002070470320704700205A
:101A1000704700BF007000400000002083DE1B43C1
:101A200030B583B00446204B9B6D13F0805F0BD024
:101A3000FFF7A6FFB0F5007F17D0802C1FD82DD060
:101A4000702C2DD000211BE0174DAB6D43F080535F
:101A5000AB65AB6D03F080530193019BFFF790FFE3
:101A6000AB6D23F08053AB65E4E7802C03D9A02C49
:101A700003D9022104E0002102E0012100E003215A
:101A80000A4A136823F007030B431360136803F03B
:101A900007038B4206D1002003B030BD0221EFE7DF
:101AA0000121EDE70120F7E700100240002002408D
:101AB000284A9368D26802F0030213F00C030AD09C
:101AC0000C2B06D0042B1FD0082B20D00020024660
:101AD00010E0012AF6D11F4A126812F0080F0CD14B
:101AE0001C4AD2F89420C2F303221B4951F8222049
:101AF00043B100200C2B0DD07047164A1268C2F378
:101B00000312F2E71046F5E714480022F2E7144802
:101B10000022EFE70F4BDB6803F00303022B16D024
:101B2000032B00D10E4A0B49CB68C3F302130133D8
:101B3000C868C0F3062002FB00F0B0FBF3F0CB68EE
:101B4000C3F3416301335B00B0FBF3F0D4E7034A16
:101B5000E9E700BF00100240403900080024F4000B
:101B600000127A00002800F05383F0B583B00446D9
:101B7000964B9D6805F00C05DE6806F003060368C9
:101B800013F0100F5AD0E5B10C2D18D0E369002BDB
:101B900000F0BB808D4A136843F001031360FEF729
:101BA000FBFF0746894B1B6813F0020F40F09A8039
:101BB000FEF7F2FFC01B0228F4D9032035E3012E03
:101BC000E4D1824B1B6813F0020F03D0E369002BB2
:101BD00000F02083606A7D4B1B6813F0080F5BD018
:101BE0007A4B1B6803F0F00398425CD8774B1A6875
:101BF00042F008021A601A6822F0F002616A0A4391
:101C00001A605A6822F47F42216A42EA01225A602D
:101C1000002D60D0FFF74CFF6C4B9B68C3F30313A0
:101C20006B4AD35C03F01F03D8406A4B18606A4BC1
:101C30001868FEF76DFF002840F0F782236813F064
:101C4000010F00F08180082D75D00C2D71D06368D4
:101C5000B3F5803F00F09880B3F5A02F00F09A8094
:101C60005A4B1A6822F480321A601A6822F48022D1
:101C70001A606368002B00F09A80FEF78DFF07461C
:101C8000524B1B6813F4003F5ED1FEF785FFC01B6B
:101C90006428F5D90320C8E24C4BD3F894301B09D3
:101CA00003F0F003A0E7FFF7BBFE002840F0B4828A
:101CB000464B1A6842F008021A601A6822F0F002D5
:101CC000616A0A431A605A6822F47F42216A42EA32
:101CD00001225A609EE7606AFFF7A2FE002899D0B1
:101CE0000120A2E2394B1A6842F008021A601A6811
:101CF00022F0F002616A0A431A605A6822F47F42B5
:101D0000216A42EA01225A6098E7304A136823F0B8
:101D100001031360FEF740FF07462C4B1B6813F0CE
:101D2000020F8BD0FEF738FFC01B0228F5D9032025
:101D30007BE2032E8BD1254B1B6813F4003F03D0AD
:101D40006368002B00F06A82236813F0020F58D0FA
:101D5000042D45D00C2D41D0E368002B00F091807C
:101D60001A4A136843F480731360FEF715FF0646A2
:101D7000164B1B6813F4806F7AD1FEF70DFF801BA2
:101D80000228F5D9032050E2104A136843F4803347
:101D900013606EE703F18043A3F53C331A6842F405
:101DA00080221A601A6842F480321A6061E7FEF7F6
:101DB000F3FE0746054B1B6813F4003FC4D0FEF743
:101DC000EBFEC01B6428F5D903202EE20010024070
:101DD000783900080000002008000020022EBBD146
:101DE000AF4B1B6813F4806F03D0E368002B00F047
:101DF0001782AB4A536823F0FE43216943EA01632B
:101E00005360236813F0080F7DD06369002B63D003
:101E1000A34BD3F89430A16903F01002914210D083
:101E200003F00302022A00F0FD8113F0010F3CD100
:101E30009B4AD2F8943023F01003A1690B43C2F8F7
:101E40009430974AD2F8943043F00103C2F89430AA
:101E5000FEF7A2FE0646924BD3F8943013F0020F21
:101E600051D1FEF799FE801B1128F4D90320DCE143
:101E70008B4A536823F0FE43216943EA01635360B0
:101E8000BFE7874A136823F480731360FEF784FE6C
:101E90000646834B1B6813F4806FB2D0FEF77CFEBE
:101EA000801B0228F5D90320BFE17D4AD2F8943087
:101EB00023F00103C2F89430FEF76EFE0646784B1D
:101EC000D3F8943013F0020FB2D0FEF765FE801BFA
:101ED0001128F4D90320A8E1714AD2F8943023F0F4
:101EE0000103C2F89430FEF757FE06466C4BD3F858
:101EF000943013F0020F06D0FEF74EFE801B11281F
:101F0000F4D9032091E1236813F0040F00F08D80D1
:101F1000634B9B6D13F0805F2ED1614B9A6D42F045
:101F200080529A659B6D03F080530193019B0126BB
:101F30005C4B1B6813F4807F20D0A36813F0010F63
:101F400038D05749D1F8902022F0800203F0800366
:101F50001343C1F89030A36813F0040F22D0D1F8D6
:101F6000902042F00402C1F89020D1F8902042F075
:101F70000102C1F890202AE00026D9E7494A1368F7
:101F800043F480731360FEF707FE0746454B1B685A
:101F900013F4807FD1D1FEF7FFFDC01B0228F5D9D5
:101FA000032042E13E4AD2F8903043F00103C2F8E8
:101FB00090300CE03A4BD3F8902022F00102C3F8A5
:101FC0009020D3F8902022F00402C3F89020A36858
:101FD0008BB1FEF7E1FD0746314BD3F8903013F09B
:101FE000020F21D1FEF7D8FDC01B41F28833984281
:101FF000F2D9032019E1FEF7CFFD0746284BD3F8AD
:10200000903013F0020F08D0FEF7C6FDC01B41F25E
:1020100088339842F2D9032007E1214AD2F8903060
:1020200023F08003C2F89030E6B9236813F0200F44
:102030003AD0A36AE3B11A4AD2F8983043F00103C8
:10204000C2F89830FEF7A8FD0646154BD3F8983035
:1020500013F0020F28D1FEF79FFD801B0228F4D950
:102060000320E2E00E4A936D23F080539365DCE792
:102070000B4AD2F8983023F00103C2F89830FEF7EB
:102080008BFD0646064BD3F8983013F0020F0BD0A9
:10209000FEF782FD801B0228F4D90320C5E000BFB3
:1020A0000010024000700040E36A002B00F0BC808A
:1020B000022B17D00C2D00F0BC805F4A136823F070
:1020C00080731360FEF768FD04465B4B1B6813F0DA
:1020D000007F00F09480FEF75FFD001B0228F4D91A
:1020E0000320A2E0544BDB6803F00301226B914212
:1020F00016D00C2D00F09B804F4A136823F080739C
:102100001360FEF749FD05464B4B1B6813F0007F3B
:102110002AD0FEF741FD401B0228F5D9032084E0B8
:1021200003F07002616B0139B2EB011FE1D103F4DE
:10213000FE42A16BB2EB012FDBD103F4C001E26BD5
:102140005208013AB1EB425FD3D103F0C063226C75
:102150005208013AB3EB426FCBD1374B1B6813F0F7
:10216000007F32D0002060E0334AD3683349194001
:10217000236B606B013843EA0013A06B43EA002332
:10218000E06B4008013843EA4053206C40080138B6
:1021900043EA40631943D160136843F080731360CE
:1021A000D36843F08073D360FEF7F6FC0446224BFD
:1021B0001B6813F0007F06D1FEF7EEFC001B02281F
:1021C000F5D9032031E000202FE01B4B1A6842F0C4
:1021D00080721A60DA6842F08072DA60FEF7DCFC26
:1021E0000446154B1B6813F0007F06D1FEF7D4FCA4
:1021F000031B022BF5D9032017E0002015E00E4A3F
:10220000D36823F0887323F00303D36000200CE02D
:1022100001207047012008E0012006E0012004E0D1
:10222000012002E0012000E0002003B0F0BD012009
:10223000FBE70120F9E700BF001002408C809FF906
:10224000002800F0AF8070B50D460446594B1B685E
:1022500003F007038B420BD2564A136823F007039F
:102260000B431360136803F007038B4240F09C801C
:10227000236813F0020F0CD0A2684F4B9B6803F049
:10228000F0039A4205D94C498B6823F0F0031A43B6
:102290008A60236813F0010F39D06368032B09D0DB
:1022A000022B26D063BB444A126812F0020F06D1FB
:1022B000012076E0404A126812F0007F76D03E4955
:1022C0008A6822F0030213438B60FEF765FC064622
:1022D000394B9B6803F00C036268B3EB820F16D096
:1022E000FEF75AFC801B41F288339842F0D9032054
:1022F00057E0314A126812F4003FE0D1012050E06B
:102300002D4A126812F4806FD9D1012049E0236868
:1023100013F0020F0CD0A268274B9B6803F0F00368
:102320009A4205D224498B6823F0F0031A438A604D
:10233000204B1B6803F00703AB420AD91D4A136800
:1023400023F007032B431360136803F00703AB422A
:102350002ED1236813F0040F06D0174A936823F494
:10236000E063E1680B439360236813F0080F07D024
:10237000114A936823F46053216943EAC1039360CF
:10238000FFF796FB0C4B9B68C3F303130B4AD35C1C
:1023900003F01F03D8400A4B18600A4B1868FEF779
:1023A000B7FB70BD012070470120FAE70120F8E774
:1023B0000120F6E7002002400010024078390008B2
:1023C0000000002008000020014B1868704700BF83
:1023D0000000002008B5FFF7F7FF054B9B68C3F32B
:1023E0000223044AD35C03F01F03D84008BD00BF9A
:1023F000001002407039000808B5FFF7E5FF054BF3
:102400009B68C3F3C223044AD35C03F01F03D84084
:1024100008BD00BF0010024070390008F0B583B05D
:102420000446036813F4003F69D0874B9B6D13F09B
:10243000805F1ED1844B9A6D42F080529A659B6DED
:1024400003F080530193019B0126804A136843F4F3
:1024500080731360FEF7A0FB05467C4B1B6813F4EA
:10246000807F08D1FEF798FB401B0228F5D9032591
:1024700002E00026E9E7002545BB734BD3F8903016
:1024800013F4407315D0226B9A4212D06E4AD2F8E0
:10249000903023F44073D2F8901041F48031C2F8A8
:1024A0009010D2F8901021F48031C2F89010C2F848
:1024B000903013F0010F10D145B9634AD2F8903033
:1024C00023F44073216B0B43C2F89030C6B15E4ACF
:1024D000936D23F08053936512E0FEF75DFB074692
:1024E000594BD3F8903013F0020FE5D1FEF754FBAF
:1024F000C01B41F288339842F2D90325DCE700255E
:10250000236813F0010F08D04F4AD2F8883023F027
:10251000030361680B43C2F88830236813F0020F8D
:1025200008D0494AD2F8883023F00C03A1680B4345
:10253000C2F88830236813F0040F08D0424AD2F85A
:10254000883023F03003E1680B43C2F888302368F9
:1025500013F0200F08D03C4AD2F8883023F44063AF
:1025600021690B43C2F88830236813F4007F08D038
:10257000354AD2F8883023F44023216A0B43C2F84D
:102580008830236813F4806F08D02F4AD2F888303F
:1025900023F44013616A0B43C2F88830236813F0B8
:1025A000400F08D0284AD2F8883023F4405361699C
:1025B0000B43C2F88830236813F0800F08D0224AFA
:1025C000D2F8883023F44043A1690B43C2F8883025
:1025D000236813F4807F08D01B4AD2F8883023F494
:1025E0004033E1690B43C2F88830236813F4005F7D
:1025F0000CD0154AD2F8883023F04063A16A0B430F
:10260000C2F88830A36AB3F1006F13D0236813F4C3
:10261000802F0CD00C4AD2F8883023F04063E16A56
:102620000B43C2F88830E36AB3F1006F07D0284645
:1026300003B0F0BDD36843F48013D360E6E7D368FA
:1026400043F48013D360F2E70010024000700040B2
:1026500000286AD010B50446436A33B94368B3F51D
:10266000827F05D00023C36102E000230361436140
:102670000023A36294F85D30002B4DD0022384F830
:102680005D302268136823F040031360E368B3F5FC
:10269000E06F47D90022B3F5706F04D0B3F5E06F57
:1026A00001D00023A362636803F48273A16801F47C
:1026B00004410B43216901F002010B43616901F000
:1026C00001010B43A16901F400710B43E16901F0C1
:1026D00038010B43216A01F080010B43A16A01F428
:1026E000005120680B430360638B03F00403616AAD
:1026F00001F010010B43616B01F008010B43E1682D
:1027000001F470610B4321681A434A60002020667F
:10271000012384F85D3010BD84F85C302046FDF75D
:10272000A1FFABE74FF48052B5E7012070470000EE
:1027300030B4036A23F001030362026A44688369C8
:1027400023F4803323F073030D681D4322F002024B
:102750008B681343144A904207D002F5A05290426E
:1027600003D002F58062904205D123F00803CA68C5
:102770001A4322F004030C4A904207D002F5A052FB
:10278000904203D002F58062904205D124F4407457
:102790004A6922438C691443446085614A684263F4
:1027A000036230BC704700BF002C014030B4036AA4
:1027B00023F480730362036A4468C26922F480329E
:1027C00022F073020D68154323F400738A6843EA0C
:1027D0000223104A904207D00F4A90420BD002F5D4
:1027E000806290420FD106E023F40063CA6843EA96
:1027F000022323F4806324F440544A6944EA021417
:102800008A6944EA02144460C5614A68C26303628B
:1028100030BC7047002C01400040014030B4036AD6
:1028200023F480530362026A4468C36923F080730F
:1028300023F4E6430D6843EA052322F400528D6831
:1028400042EA05320B4DA84207D005F5A055A84233
:1028500003D005F58065A84204D124F480444D6975
:1028600044EA85144460C3614B680364026230BC6F
:10287000704700BF002C014030B4036A23F480335A
:102880000362036A4468426D22F4803222F07002CF
:102890000D682A4323F400338D6843EA05430B4D4A
:1028A000A84207D005F5A055A84203D005F58065DC
:1028B000A84204D124F480344D6944EA05244460DC
:1028C00042654A688265036230BC7047002C014053
:1028D00030B4036A23F480130362026A4468436DD0
:1028E00023F0807323F4E0430D6843EA052322F4C8
:1028F00000128D6842EA05520B4DA84207D005F53B
:10290000A055A84203D005F58065A84204D124F45F
:1029100080244D6944EA8524446043654B68C3655F
:10292000026230BC704700BF002C014010B4036A43
:10293000046A24F001040462846924F0F00C4CEA77
:10294000021223F00A030B43826103625DF8044B19
:10295000704710B4036A23F0100303628469036AAA
:1029600024F4704C4CEA023223F0A00343EA011332
:10297000826103625DF8044B7047836823F0700343
:102980000B4343F0070383607047704703681A4A9C
:10299000904202D0B0F1804F03D123F070034A6817
:1029A0001343154A90420AD0B0F1804F07D002F588
:1029B000A052904203D002F58062904203D123F4EA
:1029C0004073CA68134323F080034A6913430360CA
:1029D0008B68C3620B688362074B984207D003F58C
:1029E000A053984203D003F58063984201D10B694C
:1029F0000363012343617047002C014060B310B5AD
:102A0000044690F83D3013B3022384F83D3021464C
:102A100051F8040BFFF7BAFF012384F8483084F81B
:102A20003E3084F83F3084F8403084F8413084F8F8
:102A3000423084F8433084F8443084F8453084F8D8
:102A4000463084F8473084F83D30002010BD80F8CF
:102A50003C30FDF771FED7E70120704760B310B539
:102A6000044690F83D3013B3022384F83D302146EC
:102A700051F8040BFFF78AFF012384F8483084F8EB
:102A80003E3084F83F3084F8403084F8413084F898
:102A9000423084F8433084F8443084F8453084F878
:102AA000463084F8473084F83D30002010BD80F86F
:102AB0003C30FFF76AFFD7E70120704730B4036A64
:102AC00023F010030362036A4468826922F0807273
:102AD00022F4E6420D6842EA052223F020038D68C5
:102AE00043EA0513104DA84207D0104DA8420BD061
:102AF00005F58065A8420FD106E023F08003CD687C
:102B000043EA051323F0400324F440644D6944EA8A
:102B100085048D6944EA8504446082614A68826361
:102B2000036230BC704700BF002C014000400140F0
:102B300038B590F83C30012B00F0958004460D46E6
:102B4000012380F83C30142A00F28880DFE802F08C
:102B50000B8686861F868686348686864886868687
:102B60005D86868671000068FFF7E2FD2268936942
:102B700043F0080393612268936923F0040393618F
:102B80002268936929690B439361002067E000681C
:102B9000FFF794FF2268936943F40063936122680E
:102BA000936923F48063936122689369296943EAF6
:102BB00001239361002052E00068FFF7F7FD2268CF
:102BC000D36943F00803D3612268D36923F0040377
:102BD000D3612268D36929690B43D36100203EE0A9
:102BE0000068FFF71BFE2268D36943F40063D361DA
:102BF0002268D36923F48063D3612268D369296989
:102C000043EA0123D361002029E00068FFF734FE86
:102C10002268536D43F0080353652268536D23F017
:102C2000040353652268536D29690B4353650020E3
:102C300015E00068FFF74CFE2268536D43F4006313
:102C400053652268536D23F4806353652268536D86
:102C5000296943EA01235365002000E00120002395
:102C600084F83C3038BD0220FCE710B4846824F4BA
:102C70007F4C42EA03220A4342EA0C0282605DF87A
:102C8000044B704790F83C30012B76D010B50446C9
:102C9000012380F83C30022380F83D3002689068C0
:102CA000374B034093600B68602B4CD029D8402BE6
:102CB00054D00CD9502B22D1CA6849682068FFF73C
:102CC00035FE50212068FFF758FE002005E0202B3C
:102CD0000DD009D9302B0AD00120012384F83D30D2
:102CE000002384F83C3010BD0BB1102B05D11946E0
:102CF0002068FFF742FE0020EFE70120EDE701200A
:102D0000EBE7B3F5805F34D0B3F5005F0CD1CB684F
:102D10004A6889682068FFF7A8FF2268936843F42F
:102D2000804393600020D8E7702B24D1CB684A6899
:102D300089682068FFF799FF2268936843F077035A
:102D400093600020C9E7CA6849682068FFF701FE60
:102D500060212068FFF711FE0020BEE7CA684968BD
:102D60002068FFF7E3FD40212068FFF706FE002002
:102D7000B3E70020B1E70120AFE70220704700BFB2
:102D80008800FEFF01F01F014FF0010C0CFA01FC5E
:102D9000036A23EA0C030362036A8A401343036253
:102DA0007047000010B5044610293BD8DFE801F059
:102DB000093A3A3A1E3A3A3A253A3A3A2C3A3A3AE3
:102DC000330090F83E30DBB2013B18BF0123002BEB
:102DD00079D1102965D8DFE801F02C64646454646B
:102DE0006464586464645C646464600090F83F30B8
:102DF000DBB2013B18BF0123E9E790F84030DBB2BA
:102E0000013B18BF0123E2E790F84130DBB2013B00
:102E100018BF0123DBE790F84230DBB2013B18BF5B
:102E20000123D4E790F84330DBB2013B18BF012304
:102E3000CDE7022384F83E3001222068FFF7A2FF8D
:102E40002368244A934207D002F5A052934203D04C
:102E500002F58062934203D15A6C42F400425A64F4
:102E600023681C4A934220D0B3F1804F1DD002F555
:102E7000A052934219D01A6842F001021A60002051
:102E800022E0022384F83F30D6E7022384F8403062
:102E9000D2E7022384F84130CEE7022384F842309F
:102EA000CAE7022384F84330C6E799680A4A0A4011
:102EB000062A0AD0B2F5803F09D01A6842F0010212
:102EC0001A60002000E0012010BD0020FCE7002077
:102ED000FAE700BF002C01400700010090F83C20F9
:102EE000012A2FD030B40346012280F83C20022270
:102EF00080F83D20006842688468134DA8421CD0C9
:102F000022F070020D682A4342601A680E4882421D
:102F100006D0B2F1804F03D000F5A050824204D118
:102F200024F08004896821439160012283F83D20C8
:102F3000002083F83C0030BC704722F470024D68DA
:102F40002A43DDE702207047002C014090F83C3016
:102F5000012B3BD010B40246012380F83C30CB68F3
:102F600023F440738868034323F480634868034371
:102F700023F400630868034323F480530869034380
:102F800023F400534869034323F48043886A0343CE
:102F900023F47023886943EA004310680C4CA04274
:102FA00006D04364002082F83C005DF8044B704773
:102FB00023F470034C6A43EA045323F08073CC6912
:102FC000234323F00073096A0B43EAE702207047AA
:102FD000002C014010B50446016883680269134360
:102FE00042691343C26913430868954A02401A4371
:102FF0000A602268536823F44053E1680B4353602E
:10300000A16922688F4B9A4201D0236A19439368C1
:1030100023F430630B43936023688B4A93421FD0A1
:103020008A4A934230D08A4A934246D0854A934294
:1030300055D0102283498B427AD0E069B0F5004F19
:1030400000F0A680082A00F20F81DFE812F0CE001F
:10305000E500CC000D01E8000D010D010D01EB00B4
:1030600002F55842D2F8882002F00302032A09D858
:10307000DFE802F002044A060122DBE70422D9E776
:103080000822D7E71022D5E702F5E632D2F88820E9
:1030900002F00C020C2A0ED8DFE802F0070D0D0D2D
:1030A000090D0D0D380D0D0D0B000022C2E7042295
:1030B000C0E70822BEE71022BCE702F5E432D2F8EE
:1030C000882002F03002202A22D004D812B3102A1D
:1030D00022D10422AEE7302A20D10822AAE702F545
:1030E000C832D2F8882002F44062B2F5006F17D0DF
:1030F00005D8BAB1B2F5806F16D104229AE7B2F5BD
:10310000406F13D1082295E7022293E7022291E74C
:1031100002228FE700228DE710228BE7102289E739
:10312000022287E7002285E7102283E7102281E749
:10313000082A7AD8DFE802F008792A79277979799C
:1031400005004FF4004003E0FFF744F900286ED07B
:10315000626802EB420383426BD8B0EB023F6AD84D
:10316000010E00025308C0184FF0000341F10001A6
:10317000FDF716F8A0F54072364B9A425DD82368E9
:10318000D860002044E0FEF793FCDFE73248DFE739
:10319000082A63D8DFE802F0072105622462626230
:1031A0000B002D4803E0FFF715F9002858D062689E
:1031B000530803EB4003B3FBF2F3A3F110014FF606
:1031C000EF7291424ED89AB222F00F02C3F342033B
:1031D00013432268D36000201AE0FFF70DF9E4E7FB
:1031E000FEF766FCE1E71C4803E0FFF7F3F8002870
:1031F0003CD0636800EB5300B0FBF3F0A0F1100289
:103200004FF6EF739A4233D8236880B2D86000201B
:1032100000236366A36610BDFFF7EEF8E7E7FEF74D
:1032200047FCE4E74FF40040E3E70120F0E700202B
:10323000EEE70120ECE70120EAE70120E8E700BF24
:10324000F369FFEF00800040003801400044004077
:1032500000480040FFFC0F000024F4000120D7E7E5
:103260000020D5E70120D3E70120D1E70020CFE7F8
:103270000120CDE7436A13F0010F06D002685368BE
:1032800023F40033816A0B435360436A13F0020F47
:1032900006D00268536823F48033C16A0B4353603D
:1032A000436A13F0040F06D00268536823F48023A6
:1032B000016B0B435360436A13F0080F06D002689A
:1032C000536823F40043416B0B435360436A13F08C
:1032D000100F06D00268936823F48053816B0B4370
:1032E0009360436A13F0200F06D00268936823F4BA
:1032F0000053C16B0B439360436A13F0400F0AD035
:103300000268536823F48013016C0B435360036C11
:10331000B3F5801F0BD0436A13F0800F06D002680C
:10332000536823F40023816C0B4353607047026899
:10333000536823F4C003416C0B435360EBE72DE962
:10334000F84305460F4616469946DDF820802B685F
:10335000DC6937EA04040CBF01240024B44253D1D1
:10336000B8F1FF3FF3D0FDF717FCA0EB0900404593
:103370002DD8B8F1000F2AD02B681A6812F0040F6C
:10338000E5D0DA6912F4006FE1D04FF400621A62FE
:103390002A6852E8003F23F4D07342E80031002944
:1033A000F6D12A6802F1080353E8003F23F0010335
:1033B000083242E800310029F3D12023AB67EB67E4
:1033C000C5F88030002385F8743003201DE02A689A
:1033D00052E8003F23F4D07342E800310029F6D1CF
:1033E0002A6802F1080353E8003F23F00103083282
:1033F00042E800310029F3D12023AB67EB670023BB
:1034000085F87430032000E00020BDE8F8832DE942
:10341000F04182B01E46836F202B56D104460D46E4
:103420009046002955D0002A55D090F87430012BD1
:1034300053D0012380F874300023C0F8803021235A
:103440008367FDF7A9FB0746A4F85080A4F85280D3
:10345000A368B3F5805F05D04FF00008002384F81F
:10346000743014E0236913B14FF00008F6E7A84662
:103470000025F3E738F8023B2268C3F308031385FD
:10348000B4F8522092B2013A92B2A4F85220B4F8A1
:1034900052309BB273B100963B46002280212046F9
:1034A000FFF74DFFD8B9002DE4D015F8012B2368A4
:1034B0001A85E5E700963B46002240212046FFF7AB
:1034C0003EFF70B92023A36700E0022002B0BDE8F0
:1034D000F0810120FAE70120F8E70220F6E7032057
:1034E000F4E70320F2E730B583B004460023C0F8C8
:1034F0008030FDF751FB05462268126812F0080F74
:103500000DD123681B6813F0040F16D12023A36785
:10351000E3670020206684F8740003B030BD6FF0CC
:103520007E430093034600224FF400112046FFF72C
:1035300006FF0028E5D00320EFE76FF07E430093FD
:103540002B4600224FF480012046FFF7F8FE0028AA
:10355000DCD00320E1E768B310B50446836F03B302
:103560002423A3672268136823F001031360204615
:10357000FFF730FD012813D0636ABBB92268536896
:1035800023F4904353602268936823F02A039360E6
:103590002268136843F0010313602046FFF7A3FF7E
:1035A00010BD80F87430FDF763FAD9E72046FFF7C5
:1035B00061FEE3E701207047DFF834D0FDF7B2F891
:1035C0000C480D490D4A002302E0D458C45004337E
:1035D000C4188C42F9D30A4A0A4C002301E0136054
:1035E0000432A242FBD300F019F8FCF7CDFFFEE74E
:1035F00000A000200000002010000020A0390008DA
:1036000010000020B0020020FEE70244034693426F
:1036100000D1704703F8011BF9E7000070B50D4DAC
:103620000D4C641BA4100026A64209D10B4D0C4C76
:1036300000F076F9641BA4100026A64205D170BDE7
:1036400055F8043B98470136EEE755F8043B984798
:103650000136F2E7903900089039000890390008E7
:10366000943900082DE9F047089D0C46002B4ED1F7
:1036700094468C458646B2FA82F262D94AB1C2F1CA
:103680002003914020FA03F30CFA02FC194300FADC
:1036900002FE4FEA1C471FFA8CF6B1FBF7F44FEA23
:1036A0001E4307FB141143EA014304FB06F1994250
:1036B0000AD91CEB030304F1FF3080F01381994217
:1036C00040F21081023C6344591A1FFA8EF3B1FB99
:1036D000F7F007FB101143EA014300FB06F69E4298
:1036E0000AD91CEB030300F1FF3180F0FD809E42FC
:1036F00040F2FA80634402389B1B40EA04400021F8
:103700001DB1D3400022C5E90032BDE8F0878B42ED
:1037100005D90DB1C5E9000100210846F5E7B3FA66
:1037200083F1002946D1A34202D39042C0F0F18038
:10373000861A64EB03030120002DE6D0C5E900637F
:10374000E3E7002A40F09180A1EB0C044FEA1C480B
:103750001FFA8CF70121B4FBF8F64FEA1E4308FB71
:10376000164443EA044307FB06F0984208D91CEBD1
:10377000030306F1FF3402D2984200F2CE802646BF
:103780001C1A1FFA8EF3B4FBF8F008FB104443EA4E
:10379000044300FB07F79F4208D91CEB030300F129
:1037A000FF3402D29F4200F2B1802046DB1B40EA88
:1037B0000640A5E7C1F120068B4022FA06F71F4319
:1037C00020FA06FC04FA01F343EA0C03F44000FA81
:1037D00001F8380C4FEA1349B4FBF0FE1FFA87FCDE
:1037E00000FB1E4449EA04440EFB0CF9A14502FA11
:1037F00001F20AD93C190EF1FF3A80F08580A1450B
:1038000040F28280AEF1020E3C44A4EB09041FFAA0
:1038100083F9B4FBF0F300FB134449EA044403FBCF
:103820000CFCA44507D93C1903F1FF3068D2A4452C
:1038300066D9023B3C4443EA0E40A0FB0293A4EB52
:103840000C049C42CE469C4652D34FD055B1B8EBA7
:103850000E0364EB0C0404FA06F6CB40CC401E4386
:10386000C5E900640021BDE8F087C2F1200320FA19
:1038700003F10CFA02FC24FA03F394400C434FEAE0
:103880001C4800FA02FE1FFA8CF7B3FBF8F008FBA5
:103890001031230C43EA014300FB07F1994208D998
:1038A0001CEB030300F1FF362CD299422AD90238CF
:1038B00063445B1AA4B2B3FBF8F108FB113344EA8A
:1038C000034401FB07F3A34208D91CEB040401F1F4
:1038D000FF3613D2A34211D902396444E41A41EAF3
:1038E000004138E70446EFE6084605E7C845ADD293
:1038F000B9EB020E63EB070C0138A7E73146EDE7A1
:10390000034698E73046D4E7D6467EE7634402385C
:103910004CE70646234608460EE7023E63442FE77F
:10392000F8B500BFF8BC08BC9E467047F8B500BFAC
:08393000F8BC08BC9E4670477C
:1039380048656C6C6F0A0000A0860100400D03000A
:10394800801A060000350C0040420F0080841E00DB
:1039580000093D0000127A000024F40000366E01D0
:103968000048E801006CDC020000000001020304CA
:103978000000000000000000010203040607080917
:08398800DCFCFF7F01000000E0
:08399000F9010008000000002D
:08399800D50100080000000049
:1039A00000093D00010000001000000000000000C0
:04000005080035B901
:00000001FF
