:020000040800F2
:1000000000A00020951900084D0300084F030008C8
:1000100051030008530300085503000800000000C6
:10002000000000000000000000000000570300086E
:1000300059030008000000005B0300085D0300088E
:10004000E5190008E5190008E5190008E519000898
:10005000E5190008E5190008E5190008E519000888
:10006000E5190008E5190008E5190008E519000878
:10007000E5190008E5190008E5190008E519000868
:10008000E5190008E5190008E5190008000000005E
:10009000000000000000000000000000E51900085A
:1000A000E5190008E5190008E5190008E519000838
:1000B000E51900080000000000000000E519000834
:1000C000E5190008E5190008E5190008E519000818
:1000D000E5190008E5190008E5190008E519000808
:1000E000E5190008E5190008000000000000000004
:1000F0000000000000000000000000000000000000
:1001000000000000000000000000000000000000EF
:100110000000000000000000E519000800000000D9
:10012000E5190008E5190008E5190008E5190008B7
:10013000E5190008000000000000000000000000B9
:10014000E5190008E5190008E5190008E519000897
:10015000E5190008E5190008E5190008E519000887
:10016000E5190008E5190008000000000000000083
:1001700000000000E5190008000000000000000079
:10018000E5190008E5190008E5190008000000005D
:1001900053B94AB9002908BF00281CBF4FF0FF31EE
:1001A0004FF0FF3000F00CB8ADF1080C6DE904CE53
:1001B00001F046FCDDF804E0DDE9022304B07047FD
:1001C000704700BF10B5054C237833B9044B13B109
:1001D0000448AFF300800123237010BD10000020FD
:1001E00000000000FC1C000808B5034B1BB10349CC
:1001F0000348AFF3008008BD000000001400002099
:10020000FC1C000830B589B00024039404940594C4
:1002100006940794164BDA6C42F00402DA64DA6C46
:1002200002F004020092009ADA6C42F00102DA64F1
:10023000DA6C02F001020192019ADA6C42F00202D9
:10024000DA64DB6C03F002030293029B094D224641
:100250000821284600F0A2FA0823039301230493FF
:100260000594069403A9284600F0BAF909B030BDF8
:10027000001002400004004872B6FEE700B597B0D7
:100280004422002105A801F0AEFB00230093019356
:100290000293039304934FF4007000F095FA10BB9F
:1002A000022305934FF48072089210220992109352
:1002B0001193012212920A2213921493159305A806
:1002C00000F06CFB88B90F230093032301930023F4
:1002D0000293039304930421684600F0CDFE30B9E5
:1002E00017B05DF804FBFFF7C7FFFFF7C5FFFFF787
:1002F000C3FF000008B500F0D3F8FFF7BFFFFFF71A
:1003000081FF00F039F84FF47A7000F0EBF8082123
:10031000014800F048FAF6E70004004882B00A4BB2
:100320001A6E42F001021A661A6E02F00102009281
:10033000009A9A6D42F080529A659B6D03F080534B
:100340000193019B02B0704700100240FEE7FEE7F8
:10035000FEE7FEE7FEE770477047704708B500F01C
:10036000AFF808BD034AD2F8883043F47003C2F8EE
:100370008830704700ED00E008B50B480B4B036078
:100380004FF4E133436000238360C36003610C22B8
:1003900042618361C3610362436201F0CAFA00B93A
:1003A00008BDFFF769FFFBE72C0000200044004078
:1003B00070B594B0044600210F91109111911291E3
:1003C0001391342202A801F00EFB22681E4B9A42C0
:1003D00001D014B070BD0223029302A800F03AFFCE
:1003E00000282ED1194B9A6D42F400329A659A6D0D
:1003F00002F400320092009ADA6C42F00102DA64F0
:10040000DB6C03F001030193019B04230F9302268D
:1004100010960025119503241294072313930FA916
:100420004FF0904000F0DCF84FF400430F9310962B
:100430001195129413940FA94FF0904000F0D0F84A
:10044000C7E7FFF719FFCDE7004400400010024066
:10045000104B1B780BB90120704710B504464FF4C0
:100460007A70B0FBF3F30C4A1068B0FBF3F000F0C5
:10047000A3F868B90F2C01D901200AE00022214617
:100480004FF0FF3000F088F8044B1C60002000E0C3
:10049000012010BD04000020000000200800002002
:1004A00010B5032000F066F80020FFF7D1FF10B16F
:1004B0000124204610BD0446FFF730FFF9E7000095
:1004C000034B1B78034A11680B441360704700BF4D
:1004D00004000020B0000020014B1868704700BFE6
:1004E000B000002038B50446FFF7F6FF0546B4F12A
:1004F000FF3F02D0044B1B781C44FFF7EDFF401B6D
:10050000A042FAD338BD00BF04000020002808DB59
:100510000901C9B200F1604000F5614080F80013A4
:10052000704700F00F000901C9B2014B1954704720
:1005300014ED00E000B500F00700C0F1070CBCF1BD
:10054000040F28BF4FF0040C031D062B0FD9C31E48
:100550004FF0FF3E0EFA0CF021EA000199400EFA2E
:1005600003FE22EA0E0241EA02005DF804FB0023CA
:10057000EEE70000074AD36823F4E0631B041B0C7A
:10058000000200F4E060034343F0BF6343F4003330
:10059000D360704700ED00E010B50446054BD86805
:1005A000C0F30220FFF7C6FF01462046FFF7AEFF6B
:1005B00010BD00BF00ED00E00138B0F1807F0BD22C
:1005C0004FF0E0235861054AF02182F82310002003
:1005D000986107221A6170470120704700ED00E022
:1005E000F0B583B0002362E085685E000324B44068
:1005F00025EA0405CC68B4402C438460456825EAAC
:100600000C054C68C4F300149C402C4344605FE02C
:10061000DD08083550F8254003F0070C4FEA8C0C34
:100620004FF00F0E0EFA0CFE24EA0E0E0C6904FABF
:100630000CF444EA0E0440F8254060E0032400E096
:10064000002404FA0EF42C430CF1020C4F4D45F833
:100650002C404F4CA568D44325EA02064F6817F496
:10066000801F01D042EA0506494DAE60ED6804EAFC
:1006700005064F6817F4001F01D042EA0506444DF5
:10068000EE606D6804EA05064F6817F4003F01D07C
:1006900042EA05063E4D6E602D682C404E6816F409
:1006A000803F01D042EA0504394A146001330A68E8
:1006B00032FA03F468D04FF0010C0CFA03FC1CEA88
:1006C0000202F3D04C6804F00304013C012C8BD9E6
:1006D0004C6804F00304032C0CD0C4685D004FF098
:1006E000030C0CFA05FC24EA0C0C8C68AC4044EAC0
:1006F0000C04C4604C6804F00304022C88D0046825
:100700004FEA430E4FF0030C0CFA0EFC24EA0C0CDB
:100710004C6804F0030404FA0EF444EA0C04046088
:100720004C6814F4403FC1D01A4C256E45F00105C9
:100730002566246E04F001040194019C4FEA930C99
:100740000CF10205114C54F8255003F0030E4FEA4A
:100750008E0E0F2404FA0EF425EA0405B0F1904F32
:100760003FF46EAF0C4CA0420AD004F58064A04266
:1007700008D004F58064A0423FF460AF072460E72E
:1007800001245EE702245CE703B0F0BD00000140F5
:100790000004014000100240000400480AB18161D9
:1007A000704781627047436901EA030221EA03014D
:1007B00041EA024181617047024B186800F4C06051
:1007C000704700BF00700040B0F5007F0FD01F4B96
:1007D0001B6803F4C063B3F5806F34D01B4A136801
:1007E00023F4C06343F48063136000207047174B09
:1007F0001B6803F4C063B3F5007F20D0134A13686D
:1008000023F4C06343F400731360114B1B6832225E
:1008100002FB03F30F4AA2FB03239B0C013300E00E
:10082000013B0A4A526912F4806F01D0002BF7D1C4
:10083000064B5B6913F4806F03D1002070470020E2
:100840007047032070470020704700BF00700040D1
:100850000000002083DE1B4330B583B00446204BEC
:100860009B6D13F0805F0BD0FFF7A6FFB0F5007F04
:1008700017D0802C1FD82DD0702C2DD000211BE03C
:10088000174DAB6D43F08053AB65AB6D03F08053F8
:100890000193019BFFF790FFAB6D23F08053AB6595
:1008A000E4E7802C03D9A02C03D9022104E0002125
:1008B00002E0012100E003210A4A136823F0070344
:1008C0000B431360136803F007038B4206D100202B
:1008D00003B030BD0221EFE70121EDE70120F7E78A
:1008E0000010024000200240284A9368D26802F0BB
:1008F000030213F00C030AD00C2B06D0042B1FD0DC
:10090000082B20D00020024610E0012AF6D11F4A11
:10091000126812F0080F0CD11C4AD2F89420C2F3CE
:1009200003221B4951F8222043B100200C2B0DD08B
:100930007047164A1268C2F30312F2E71046F5E751
:1009400014480022F2E714480022EFE70F4BDB685F
:1009500003F00303022B16D0032B00D10E4A0B49E0
:10096000CB68C3F302130133C868C0F3062002FB4F
:1009700000F0B0FBF3F0CB68C3F3416301335B00DD
:10098000B0FBF3F0D4E7034AE9E700BF00100240F0
:10099000181D00080024F40000127A00002800F05E
:1009A0005383F0B583B00446964B9D6805F00C0563
:1009B000DE6806F00306036813F0100F5AD0E5B1A5
:1009C0000C2D18D0E369002B00F0BB808D4A136812
:1009D00043F001031360FFF77FFD0746894B1B6857
:1009E00013F0020F40F09A80FFF776FDC01B02283B
:1009F000F4D9032035E3012EE4D1824B1B6813F0B8
:100A0000020F03D0E369002B00F02083606A7D4B66
:100A10001B6813F0080F5BD07A4B1B6803F0F003E0
:100A200098425CD8774B1A6842F008021A601A683C
:100A300022F0F002616A0A431A605A6822F47F4287
:100A4000216A42EA01225A60002D60D0FFF74CFF74
:100A50006C4B9B68C3F303136B4AD35C03F01F0317
:100A6000D8406A4B18606A4B1868FFF7F1FC002801
:100A700040F0F782236813F0010F00F08180082D09
:100A800075D00C2D71D06368B3F5803F00F098806D
:100A9000B3F5A02F00F09A805A4B1A6822F48032E6
:100AA0001A601A6822F480221A606368002B00F032
:100AB0009A80FFF711FD0746524B1B6813F4003F65
:100AC0005ED1FFF709FDC01B6428F5D90320C8E2F9
:100AD0004C4BD3F894301B0903F0F003A0E7FFF769
:100AE000BBFE002840F0B482464B1A6842F0080270
:100AF0001A601A6822F0F002616A0A431A605A68A2
:100B000022F47F42216A42EA01225A609EE7606A2B
:100B1000FFF7A2FE002899D00120A2E2394B1A6803
:100B200042F008021A601A6822F0F002616A0A4371
:100B30001A605A6822F47F42216A42EA01225A600E
:100B400098E7304A136823F001031360FFF7C4FCF1
:100B500007462C4B1B6813F0020F8BD0FFF7BCFC31
:100B6000C01B0228F5D903207BE2032E8BD1254B35
:100B70001B6813F4003F03D06368002B00F06A8207
:100B8000236813F0020F58D0042D45D00C2D41D00E
:100B9000E368002B00F091801A4A136843F48073D5
:100BA0001360FFF799FC0646164B1B6813F4806F21
:100BB0007AD1FFF791FC801B0228F5D9032050E27F
:100BC000104A136843F4803313606EE703F18043E7
:100BD000A3F53C331A6842F480221A601A6842F482
:100BE00080321A6061E7FFF777FC0746054B1B6808
:100BF00013F4003FC4D0FFF76FFCC01B6428F5D985
:100C000003202EE200100240501D000800000020CA
:100C100008000020022EBBD1AF4B1B6813F4806F7D
:100C200003D0E368002B00F01782AB4A536823F02F
:100C3000FE43216943EA01635360236813F0080F00
:100C40007DD06369002B63D0A34BD3F89430A169A6
:100C500003F01002914210D003F00302022A00F0C8
:100C6000FD8113F0010F3CD19B4AD2F8943023F060
:100C70001003A1690B43C2F89430974AD2F894301C
:100C800043F00103C2F89430FFF726FC0646924B6E
:100C9000D3F8943013F0020F51D1FFF71DFC801BE5
:100CA0001128F4D90320DCE18B4A536823F0FE437A
:100CB000216943EA01635360BFE7874A136823F45D
:100CC00080731360FFF708FC0646834B1B6813F420
:100CD000806FB2D0FFF700FC801B0228F5D90320FB
:100CE000BFE17D4AD2F8943023F00103C2F894307A
:100CF000FFF7F2FB0646784BD3F8943013F0020F5F
:100D0000B2D0FFF7E9FB801B1128F4D90320A8E13A
:100D1000714AD2F8943023F00103C2F89430FFF7FF
:100D2000DBFB06466C4BD3F8943013F0020F06D071
:100D3000FFF7D2FB801B1128F4D9032091E123682F
:100D400013F0040F00F08D80634B9B6D13F0805FF8
:100D50002ED1614B9A6D42F080529A659B6D03F0E3
:100D600080530193019B01265C4B1B6813F4807F29
:100D700020D0A36813F0010F38D05749D1F8902044
:100D800022F0800203F080031343C1F89030A3687F
:100D900013F0040F22D0D1F8902042F00402C1F8E1
:100DA0009020D1F8902042F00102C1F890202AE072
:100DB0000026D9E7494A136843F480731360FFF7AC
:100DC0008BFB0746454B1B6813F4807FD1D1FFF79F
:100DD00083FBC01B0228F5D9032042E13E4AD2F82A
:100DE000903043F00103C2F890300CE03A4BD3F856
:100DF000902022F00102C3F89020D3F8902022F036
:100E00000402C3F89020A3688BB1FFF765FB074687
:100E1000314BD3F8903013F0020F21D1FFF75CFB78
:100E2000C01B41F288339842F2D9032019E1FFF741
:100E300053FB0746284BD3F8903013F0020F08D02D
:100E4000FFF74AFBC01B41F288339842F2D90320D6
:100E500007E1214AD2F8903023F08003C2F89030A5
:100E6000E6B9236813F0200F3AD0A36AE3B11A4A17
:100E7000D2F8983043F00103C2F89830FFF72CFB0A
:100E80000646154BD3F8983013F0020F28D1FFF720
:100E900023FB801B0228F4D90320E2E00E4A936D65
:100EA00023F080539365DCE70B4AD2F8983023F0A7
:100EB0000103C2F89830FFF70FFB0646064BD3F844
:100EC000983013F0020F0BD0FFF706FB801B0228AF
:100ED000F4D90320C5E000BF0010024000700040BC
:100EE000E36A002B00F0BC80022B17D00C2D00F021
:100EF000BC805F4A136823F080731360FFF7ECFA3D
:100F000004465B4B1B6813F0007F00F09480FFF7F2
:100F1000E3FA001B0228F4D90320A2E0544BDB685B
:100F200003F00301226B914216D00C2D00F09B8040
:100F30004F4A136823F080731360FFF7CDFA05461C
:100F40004B4B1B6813F0007F2AD0FFF7C5FA401BFC
:100F50000228F5D9032084E003F07002616B0139A7
:100F6000B2EB011FE1D103F4FE42A16BB2EB012F02
:100F7000DBD103F4C001E26B5208013AB1EB425FEE
:100F8000D3D103F0C063226C5208013AB3EB426F35
:100F9000CBD1374B1B6813F0007F32D0002060E0CC
:100FA000334AD36833491940236B606B013843EAF5
:100FB0000013A06B43EA0023E06B4008013843EACA
:100FC0004053206C4008013843EA40631943D16024
:100FD000136843F080731360D36843F08073D36069
:100FE000FFF77AFA0446224B1B6813F0007F06D104
:100FF000FFF772FA001B0228F5D9032031E0002028
:101000002FE01B4B1A6842F080721A60DA6842F0D7
:101010008072DA60FFF760FA0446154B1B6813F024
:10102000007F06D1FFF758FA031B022BF5D90320E6
:1010300017E0002015E00E4AD36823F0887323F0F0
:101040000303D36000200CE001207047012008E07A
:10105000012006E0012004E0012002E0012000E080
:10106000002003B0F0BD0120FBE70120F9E700BF3D
:10107000001002408C809FF9002800F0AF8070B50E
:101080000D460446594B1B6803F007038B420BD2F5
:10109000564A136823F007030B431360136803F0E9
:1010A00007038B4240F09C80236813F0020F0CD0A2
:1010B000A2684F4B9B6803F0F0039A4205D94C4954
:1010C0008B6823F0F0031A438A60236813F0010F42
:1010D00039D06368032B09D0022B26D063BB444A66
:1010E000126812F0020F06D1012076E0404A126821
:1010F00012F0007F76D03E498A6822F00302134343
:101100008B60FFF7E9F90646394B9B6803F00C0347
:101110006268B3EB820F16D0FFF7DEF9801B41F255
:1011200088339842F0D9032057E0314A126812F40C
:10113000003FE0D1012050E02D4A126812F4806F88
:10114000D9D1012049E0236813F0020F0CD0A26826
:10115000274B9B6803F0F0039A4205D224498B6821
:1011600023F0F0031A438A60204B1B6803F0070347
:10117000AB420AD91D4A136823F007032B431360BF
:10118000136803F00703AB422ED1236813F0040F5A
:1011900006D0174A936823F4E063E1680B43936039
:1011A000236813F0080F07D0114A936823F46053A3
:1011B000216943EAC1039360FFF796FB0C4B9B68E0
:1011C000C3F303130B4AD35C03F01F03D8400A4B4D
:1011D00018600A4B1868FFF73BF970BD0120704793
:1011E0000120FAE70120F8E70120F6E7002002409D
:1011F00000100240501D00080000002008000020E0
:10120000014B1868704700BF0000002008B5FFF7C9
:10121000F7FF054B9B68C3F30223044AD35C03F03A
:101220001F03D84008BD00BF00100240481D000841
:1012300008B5FFF7E5FF054B9B68C3F3C223044ADB
:10124000D35C03F01F03D84008BD00BF001002406C
:10125000481D0008F0B583B00446036813F4003F4E
:1012600069D0874B9B6D13F0805F1ED1844B9A6DC4
:1012700042F080529A659B6D03F080530193019B6D
:101280000126804A136843F480731360FFF724F942
:1012900005467C4B1B6813F4807F08D1FFF71CF9CF
:1012A000401B0228F5D9032502E00026E9E70025C6
:1012B00045BB734BD3F8903013F4407315D0226BB9
:1012C0009A4212D06E4AD2F8903023F44073D2F88A
:1012D000901041F48031C2F89010D2F8901021F4AF
:1012E0008031C2F89010C2F8903013F0010F10D185
:1012F00045B9634AD2F8903023F44073216B0B4315
:10130000C2F89030C6B15E4A936D23F08053936566
:1013100012E0FFF7E1F80746594BD3F8903013F08D
:10132000020FE5D1FFF7D8F8C01B41F2883398428D
:10133000F2D90325DCE70025236813F0010F08D05C
:101340004F4AD2F8883023F0030361680B43C2F898
:101350008830236813F0020F08D0494AD2F8883049
:1013600023F00C03A1680B43C2F88830236813F004
:10137000040F08D0424AD2F8883023F03003E168E5
:101380000B43C2F88830236813F0200F08D03C4A82
:10139000D2F8883023F4406321690B43C2F88830C7
:1013A000236813F4007F08D0354AD2F8883023F43C
:1013B0004023216A0B43C2F88830236813F4806FFE
:1013C00008D02F4AD2F8883023F44013616A0B43C7
:1013D000C2F88830236813F0400F08D0284AD2F8AA
:1013E000883023F4405361690B43C2F88830236886
:1013F00013F0800F08D0224AD2F8883023F44043FB
:10140000A1690B43C2F88830236813F4807F08D0A9
:101410001B4AD2F8883023F44033E1690B43C2F809
:101420008830236813F4005F0CD0154AD2F8883056
:1014300023F04063A16A0B43C2F88830A36AB3F17A
:10144000006F13D0236813F4802F0CD00C4AD2F80D
:10145000883023F04063E16A0B43C2F88830E36AC6
:10146000B3F1006F07D0284603B0F0BDD36843F452
:101470008013D360E6E7D36843F48013D360F2E7C8
:10148000001002400070004010B5044601688368F7
:101490000269134342691343C26913430868954ABA
:1014A00002401A430A602268536823F44053E168FB
:1014B0000B435360A16922688F4B9A4201D0236A83
:1014C0001943936823F430630B43936023688B4A7A
:1014D00093421FD08A4A934230D08A4A934246D0E0
:1014E000854A934255D0102283498B427AD0E069D5
:1014F000B0F5004F00F0A680082A00F20F81DFE867
:1015000012F0CE00E500CC000D01E8000D010D0148
:101510000D01EB0002F55842D2F8882002F00302D8
:10152000032A09D8DFE802F002044A060122DBE7B9
:101530000422D9E70822D7E71022D5E702F5E632E0
:10154000D2F8882002F00C020C2A0ED8DFE802F054
:10155000070D0D0D090D0D0D380D0D0D0B000022A1
:10156000C2E70422C0E70822BEE71022BCE702F56A
:10157000E432D2F8882002F03002202A22D004D8A7
:1015800012B3102A22D10422AEE7302A20D1082239
:10159000AAE702F5C832D2F8882002F44062B2F518
:1015A000006F17D005D8BAB1B2F5806F16D10422FA
:1015B0009AE7B2F5406F13D1082295E7022293E72C
:1015C000022291E702228FE700228DE710228BE7AB
:1015D000102289E7022287E7002285E7102283E7AD
:1015E000102281E7082A7AD8DFE802F008792A7900
:1015F0002779797905004FF4004003E0FFF706FEF4
:1016000000286ED0626802EB420383426BD8B0EBD5
:10161000023F6AD8010E00025308C0184FF00003C1
:1016200041F10001FEF7B4FDA0F54072364B9A423D
:101630005DD82368D860002044E0FFF755F9DFE764
:101640003248DFE7082A63D8DFE802F007210562A5
:10165000246262620B002D4803E0FFF7D7FD0028EB
:1016600058D06268530803EB4003B3FBF2F3A3F1D5
:1016700010014FF6EF7291424ED89AB222F00F024B
:10168000C3F3420313432268D36000201AE0FFF73C
:10169000CFFDE4E7FFF728F9E1E71C4803E0FFF797
:1016A000B5FD00283CD0636800EB5300B0FBF3F0BD
:1016B000A0F110024FF6EF739A4233D8236880B23C
:1016C000D860002000236366A36610BDFFF7B0FD5D
:1016D000E7E7FFF709F9E4E74FF40040E3E701200B
:1016E000F0E70020EEE70120ECE70120EAE7012027
:1016F000E8E700BFF369FFEF0080004000380140D9
:101700000044004000480040FFFC0F000024F400AB
:101710000120D7E70020D5E70120D3E70120D1E75A
:101720000020CFE70120CDE7436A13F0010F06D078
:101730000268536823F40033816A0B435360436AA1
:1017400013F0020F06D00268536823F48033C16A95
:101750000B435360436A13F0040F06D002685368CA
:1017600023F48023016B0B435360436A13F0080F8B
:1017700006D00268536823F40043416B0B43536067
:10178000436A13F0100F06D00268936823F4805365
:10179000816B0B439360436A13F0200F06D00268FD
:1017A000936823F40053C16B0B439360436A13F0B7
:1017B000400F0AD00268536823F48013016C0B4376
:1017C0005360036CB3F5801F0BD0436A13F0800F96
:1017D00006D00268536823F40023816C0B435360E6
:1017E00070470268536823F4C003416C0B43536095
:1017F000EBE72DE9F84305460F4616469946DDF816
:1018000020802B68DC6937EA04040CBF0124002423
:10181000B44253D1B8F1FF3FF3D0FEF75DFEA0EB29
:10182000090040452DD8B8F1000F2AD02B681A685E
:1018300012F0040FE5D0DA6912F4006FE1D04FF432
:1018400000621A622A6852E8003F23F4D07342E82B
:1018500000310029F6D12A6802F1080353E8003F5D
:1018600023F00103083242E800310029F3D120239C
:10187000AB67EB67C5F88030002385F87430032030
:101880001DE02A6852E8003F23F4D07342E800319B
:101890000029F6D12A6802F1080353E8003F23F03B
:1018A0000103083242E800310029F3D12023AB675D
:1018B000EB67002385F87430032000E00020BDE8CA
:1018C000F88330B583B004460023C0F88030FEF7BB
:1018D00003FE05462268126812F0080F0DD1236836
:1018E0001B6813F0040F16D12023A367E3670020C1
:1018F000206684F8740003B030BD6FF07E4300931F
:10190000034600224FF400112046FFF772FF002823
:10191000E5D00320EFE76FF07E4300932B460022D3
:101920004FF480012046FFF764FF0028DCD003203D
:10193000E1E768B310B50446836F03B32423A367BC
:101940002268136823F0010313602046FFF79CFD13
:10195000012813D0636ABBB92268536823F490430B
:1019600053602268936823F02A0393602268136807
:1019700043F0010313602046FFF7A3FF10BD80F87A
:101980007430FEF715FDD9E72046FFF7CDFEE3E7FB
:1019900001207047DFF834D0FEF7E4FC0C480D4915
:1019A0000D4A002302E0D458C4500433C4188C42BA
:1019B000F9D30A4A0A4C002301E013600432A24220
:1019C000FBD300F019F8FEF795FCFEE700A000201D
:1019D0000000002010000020781D000810000020EA
:1019E000B4000020FEE702440346934200D1704752
:1019F00003F8011BF9E7000070B50D4D0D4C641B99
:101A0000A4100026A64209D10B4D0C4C00F076F92B
:101A1000641BA4100026A64205D170BD55F8043BF6
:101A200098470136EEE755F8043B98470136F2E750
:101A3000681D0008681D0008681D00086C1D00086E
:101A40002DE9F047089D0C46002B4ED194468C455D
:101A50008646B2FA82F262D94AB1C2F120039140BD
:101A600020FA03F30CFA02FC194300FA02FE4FEAD3
:101A70001C471FFA8CF6B1FBF7F44FEA1E4307FB35
:101A8000141143EA014304FB06F199420AD91CEB05
:101A9000030304F1FF3080F01381994240F210817A
:101AA000023C6344591A1FFA8EF3B1FBF7F007FBAF
:101AB000101143EA014300FB06F69E420AD91CEBD3
:101AC000030300F1FF3180F0FD809E4240F2FA8076
:101AD000634402389B1B40EA044000211DB1D340FF
:101AE0000022C5E90032BDE8F0878B4205D90DB16F
:101AF000C5E9000100210846F5E7B3FA83F10029A2
:101B000046D1A34202D39042C0F0F180861A64EB22
:101B100003030120002DE6D0C5E90063E3E7002AB6
:101B200040F09180A1EB0C044FEA1C481FFA8CF79F
:101B30000121B4FBF8F64FEA1E4308FB164443EAC2
:101B4000044307FB06F0984208D91CEB030306F197
:101B5000FF3402D2984200F2CE8026461C1A1FFAA9
:101B60008EF3B4FBF8F008FB104443EA044300FB97
:101B700007F79F4208D91CEB030300F1FF3402D2A0
:101B80009F4200F2B1802046DB1B40EA0640A5E7F9
:101B9000C1F120068B4022FA06F71F4320FA06FC0B
:101BA00004FA01F343EA0C03F44000FA01F8380C9C
:101BB0004FEA1349B4FBF0FE1FFA87FC00FB1E44FA
:101BC00049EA04440EFB0CF9A14502FA01F20AD9D4
:101BD0003C190EF1FF3A80F08580A14540F28280E9
:101BE000AEF1020E3C44A4EB09041FFA83F9B4FBE6
:101BF000F0F300FB134449EA044403FB0CFCA44546
:101C000007D93C1903F1FF3068D2A44566D9023BDD
:101C10003C4443EA0E40A0FB0293A4EB0C049C421C
:101C2000CE469C4652D34FD055B1B8EB0E0364EB71
:101C30000C0404FA06F6CB40CC401E43C5E9006410
:101C40000021BDE8F087C2F1200320FA03F10CFA6D
:101C500002FC24FA03F394400C434FEA1C4800FAB8
:101C600002FE1FFA8CF7B3FBF8F008FB1031230CCF
:101C700043EA014300FB07F1994208D91CEB030337
:101C800000F1FF362CD299422AD9023863445B1AFC
:101C9000A4B2B3FBF8F108FB113344EA034401FB9F
:101CA00007F3A34208D91CEB040401F1FF3613D259
:101CB000A34211D902396444E41A41EA004138E7E9
:101CC0000446EFE6084605E7C845ADD2B9EB020E7B
:101CD00063EB070C0138A7E73146EDE7034698E7C9
:101CE0003046D4E7D6467EE7634402384CE70646E2
:101CF000234608460EE7023E63442FE7F8B500BFCF
:101D0000F8BC08BC9E467047F8B500BFF8BC08BCDC
:081D10009E4670470000000030
:101D1800A0860100400D0300801A060000350C0063
:101D280040420F0080841E0000093D0000127A0026
:101D38000024F40000366E010048E801006CDC0263
:101D48000000000001020304000000000000000081
:081D580001020304060708095B
:081D6000E0FCFF7F0100000020
:081D6800E90100080000000081
:081D7000C5010008000000009D
:101D780000093D0001000000100000000000000004
:040000050800199541
:00000001FF
